{
  "contractName": "Event",
  "abi": [
    {
      "inputs": [
        {
          "internalType": "uint256",
          "name": "_totalTickets",
          "type": "uint256"
        },
        {
          "internalType": "address",
          "name": "_host",
          "type": "address"
        },
        {
          "internalType": "uint256",
          "name": "_price",
          "type": "uint256"
        },
        {
          "internalType": "bool",
          "name": "_allowResale",
          "type": "bool"
        },
        {
          "internalType": "uint256",
          "name": "_resaleFee",
          "type": "uint256"
        }
      ],
      "stateMutability": "nonpayable",
      "type": "constructor"
    },
    {
      "anonymous": false,
      "inputs": [
        {
          "indexed": false,
          "internalType": "uint256",
          "name": "ticketId",
          "type": "uint256"
        },
        {
          "indexed": false,
          "internalType": "uint256",
          "name": "price",
          "type": "uint256"
        },
        {
          "indexed": false,
          "internalType": "bool",
          "name": "forSale",
          "type": "bool"
        }
      ],
      "name": "LogTicket",
      "type": "event"
    },
    {
      "anonymous": false,
      "inputs": [
        {
          "indexed": false,
          "internalType": "uint256",
          "name": "ticketId",
          "type": "uint256"
        }
      ],
      "name": "TicketCreated",
      "type": "event"
    },
    {
      "anonymous": false,
      "inputs": [
        {
          "indexed": false,
          "internalType": "uint256",
          "name": "ticketId",
          "type": "uint256"
        },
        {
          "indexed": false,
          "internalType": "uint256",
          "name": "price",
          "type": "uint256"
        }
      ],
      "name": "TicketListedForResale",
      "type": "event"
    },
    {
      "anonymous": false,
      "inputs": [
        {
          "indexed": false,
          "internalType": "uint256",
          "name": "ticketId",
          "type": "uint256"
        },
        {
          "indexed": false,
          "internalType": "address",
          "name": "from",
          "type": "address"
        },
        {
          "indexed": false,
          "internalType": "address",
          "name": "to",
          "type": "address"
        }
      ],
      "name": "TicketOwnershipTransferred",
      "type": "event"
    },
    {
      "anonymous": false,
      "inputs": [
        {
          "indexed": false,
          "internalType": "address",
          "name": "buyer",
          "type": "address"
        }
      ],
      "name": "TicketPurchased",
      "type": "event"
    },
    {
      "inputs": [],
      "name": "allowResale",
      "outputs": [
        {
          "internalType": "bool",
          "name": "",
          "type": "bool"
        }
      ],
      "stateMutability": "view",
      "type": "function"
    },
    {
      "inputs": [],
      "name": "buyTicket",
      "outputs": [],
      "stateMutability": "payable",
      "type": "function"
    },
    {
      "inputs": [
        {
          "internalType": "uint256",
          "name": "ticketId",
          "type": "uint256"
        }
      ],
      "name": "checkPrice",
      "outputs": [
        {
          "internalType": "uint256",
          "name": "",
          "type": "uint256"
        }
      ],
      "stateMutability": "view",
      "type": "function"
    },
    {
      "inputs": [
        {
          "internalType": "uint256",
          "name": "ticketId",
          "type": "uint256"
        }
      ],
      "name": "checkTicketForSale",
      "outputs": [
        {
          "internalType": "bool",
          "name": "",
          "type": "bool"
        }
      ],
      "stateMutability": "view",
      "type": "function"
    },
    {
      "inputs": [],
      "name": "checkTickets",
      "outputs": [],
      "stateMutability": "nonpayable",
      "type": "function"
    },
    {
      "inputs": [],
      "name": "createTicket",
      "outputs": [],
      "stateMutability": "nonpayable",
      "type": "function"
    },
    {
      "inputs": [
        {
          "internalType": "address",
          "name": "account",
          "type": "address"
        },
        {
          "internalType": "uint256",
          "name": "ticketId",
          "type": "uint256"
        }
      ],
      "name": "getTicketOwnership",
      "outputs": [
        {
          "internalType": "uint256",
          "name": "",
          "type": "uint256"
        }
      ],
      "stateMutability": "view",
      "type": "function"
    },
    {
      "inputs": [],
      "name": "host",
      "outputs": [
        {
          "internalType": "address",
          "name": "",
          "type": "address"
        }
      ],
      "stateMutability": "view",
      "type": "function"
    },
    {
      "inputs": [
        {
          "internalType": "uint256",
          "name": "_ticketId",
          "type": "uint256"
        },
        {
          "internalType": "uint256",
          "name": "_price",
          "type": "uint256"
        }
      ],
      "name": "listTicketForResale",
      "outputs": [],
      "stateMutability": "nonpayable",
      "type": "function"
    },
    {
      "inputs": [
        {
          "internalType": "address",
          "name": "",
          "type": "address"
        },
        {
          "internalType": "uint256",
          "name": "",
          "type": "uint256"
        }
      ],
      "name": "ownedTickets",
      "outputs": [
        {
          "internalType": "uint256",
          "name": "",
          "type": "uint256"
        }
      ],
      "stateMutability": "view",
      "type": "function"
    },
    {
      "inputs": [
        {
          "internalType": "uint256",
          "name": "_ticketId",
          "type": "uint256"
        }
      ],
      "name": "rebuyTicket",
      "outputs": [],
      "stateMutability": "payable",
      "type": "function"
    },
    {
      "inputs": [],
      "name": "resaleFee",
      "outputs": [
        {
          "internalType": "uint256",
          "name": "",
          "type": "uint256"
        }
      ],
      "stateMutability": "view",
      "type": "function"
    },
    {
      "inputs": [],
      "name": "ticketPrice",
      "outputs": [
        {
          "internalType": "uint256",
          "name": "",
          "type": "uint256"
        }
      ],
      "stateMutability": "view",
      "type": "function"
    },
    {
      "inputs": [
        {
          "internalType": "uint256",
          "name": "",
          "type": "uint256"
        }
      ],
      "name": "tickets",
      "outputs": [
        {
          "internalType": "uint256",
          "name": "ticketId",
          "type": "uint256"
        },
        {
          "internalType": "uint256",
          "name": "price",
          "type": "uint256"
        },
        {
          "internalType": "bool",
          "name": "forSale",
          "type": "bool"
        }
      ],
      "stateMutability": "view",
      "type": "function"
    },
    {
      "inputs": [],
      "name": "ticketsSold",
      "outputs": [
        {
          "internalType": "uint256",
          "name": "",
          "type": "uint256"
        }
      ],
      "stateMutability": "view",
      "type": "function"
    },
    {
      "inputs": [],
      "name": "totalTickets",
      "outputs": [
        {
          "internalType": "uint256",
          "name": "",
          "type": "uint256"
        }
      ],
      "stateMutability": "view",
      "type": "function"
    },
    {
      "inputs": [
        {
          "internalType": "uint256",
          "name": "_ticketId",
          "type": "uint256"
        },
        {
          "internalType": "address",
          "name": "_to",
          "type": "address"
        }
      ],
      "name": "transferTicket",
      "outputs": [],
      "stateMutability": "nonpayable",
      "type": "function"
    }
  ],
  "bytecode": "0x6080604052600060025534801561001557600080fd5b50d3801561002257600080fd5b50d2801561002f57600080fd5b50604051610fa3380380610fa383398101604081905261004e91610093565b6000949094556004805460019390935590151560ff196001600160a01b0390941661010002610100600160a81b03199093169290921792909216179055600355610104565b600080600080600060a086880312156100aa578081fd5b855160208701519095506001600160a81b03811681146100c8578182fd5b604087015160608801516001600160a01b03929092169550935080151581146100ef578182fd5b80925050608086015190509295509295909350565b610e90806101136000396000f3fe6080604052600436106100fe5760003560e01c80636a07a83211610095578063e02bf6ef11610064578063e02bf6ef146103b8578063e5dcf101146103e7578063edca914c146103fa578063f3e7175614610402578063f437bc5914610431576100fe565b80636a07a832146102f15780638f15024f1461032057806399eb37591461034f578063dd11247e14610389576100fe565b8063456993d7116100d1578063456993d7146101ed57806350b44712146102345780636053b0ef1461027d578063679ebf1a146102b7576100fe565b80631209b1f6146101035780631d271709146101485780631de7463a146101795780634459723d146101b3575b600080fd5b34801561010f57600080fd5b50d3801561011c57600080fd5b50d2801561012957600080fd5b5061013261046d565b60405161013f9190610d85565b60405180910390f35b34801561015457600080fd5b50d3801561016157600080fd5b50d2801561016e57600080fd5b50610177610473565b005b34801561018557600080fd5b50d3801561019257600080fd5b50d2801561019f57600080fd5b506101326101ae366004610b93565b610538565b3480156101bf57600080fd5b50d380156101cc57600080fd5b50d280156101d957600080fd5b506101326101e8366004610b6a565b61054d565b3480156101f957600080fd5b50d3801561020657600080fd5b50d2801561021357600080fd5b50610227610222366004610b93565b610575565b60405161013f9190610c0b565b34801561024057600080fd5b50d3801561024d57600080fd5b50d2801561025a57600080fd5b5061026e610269366004610b93565b61058d565b60405161013f93929190610dbb565b34801561028957600080fd5b50d3801561029657600080fd5b50d280156102a357600080fd5b506101776102b2366004610bd6565b6105b1565b3480156102c357600080fd5b50d380156102d057600080fd5b50d280156102dd57600080fd5b506101776102ec366004610bab565b61069d565b3480156102fd57600080fd5b50d3801561030a57600080fd5b50d2801561031757600080fd5b50610132610725565b34801561032c57600080fd5b50d3801561033957600080fd5b50d2801561034657600080fd5b5061013261072b565b34801561035b57600080fd5b50d3801561036857600080fd5b50d2801561037557600080fd5b50610132610384366004610b6a565b610731565b34801561039557600080fd5b50d380156103a257600080fd5b50d280156103af57600080fd5b5061013261074e565b3480156103c457600080fd5b50d380156103d157600080fd5b50d280156103de57600080fd5b50610227610754565b6101776103f5366004610b93565b61075d565b61017761092d565b34801561040e57600080fd5b50d3801561041b57600080fd5b50d2801561042857600080fd5b50610177610a71565b34801561043d57600080fd5b50d3801561044a57600080fd5b50d2801561045757600080fd5b50610460610b2f565b60405161013f9190610bf7565b60015481565b6000546002541061049f5760405162461bcd60e51b815260040161049690610cc3565b60405180910390fd5b60408051606081018252600280548083526001805460208086019182526000868801818152948152600590915295862094518555519084015551918101805460ff1916921515929092179091558054916104f883610e29565b91905055507f017816d6671654d29260799b31a628be724d7e4fa8e22da3fae8ab443ec0a3c360025460405161052e9190610d85565b60405180910390a1565b60009081526005602052604090206001015490565b6001600160a01b03919091166000908152600660209081526040808320938352929052205490565b60009081526005602052604090206002015460ff1690565b60056020526000908152604090208054600182015460029092015490919060ff1683565b60045460ff1615156001146105d85760405162461bcd60e51b815260040161049690610c7d565b60025482106105f95760405162461bcd60e51b815260040161049690610c16565b6000828152600760205260409020546001600160a01b0316331461062f5760405162461bcd60e51b815260040161049690610d40565b60008281526005602052604090819020600281018054600180840186905560ff199182161760ff81161515911617905590517f2d8cbebfd87cb19b7bed949f9c8d5a80d939133966ef331ac575d69160ea0465906106909085908590610dad565b60405180910390a1505050565b60025482106106be5760405162461bcd60e51b815260040161049690610c16565b6001600160a01b03811660009081526006602090815260408083208584529091529081902060019055517f28f6f1dce7cc33c97d4fb9baab19ba3c5f596ea2f56c0ae92d7511aa0dba97979061071990849033908590610d8e565b60405180910390a15050565b60035481565b60025481565b600660209081526000928352604080842090915290825290205481565b60005481565b60045460ff1681565b600254811061077e5760405162461bcd60e51b815260040161049690610c16565b6000818152600560205260409020600281015460ff166107b05760405162461bcd60e51b815260040161049690610c46565b806001015434146107d35760405162461bcd60e51b815260040161049690610d09565b6000828152600760205260408120546003546001600160a01b0390911691906064906107ff9034610df3565b6108099190610dd3565b905060006108178234610e12565b6040519091506001600160a01b0384169082156108fc029083906000818181858888f19350505050158015610850573d6000803e3d6000fd5b506004546040516101009091046001600160a01b0316906108fc8415029084906000818181858888f1935050505015801561088f573d6000803e3d6000fd5b506001600160a01b038316600090815260066020818152604080842089855282528084208490553380855292825280842089855282528084206001905560079091529182902080546001600160a01b0319168217905560028601805460ff1916905590517f23443ac3afaec974c2d4368824912f61a50fee541bcc94ec52414ba6a9b14aab9161091e91610bf7565b60405180910390a15050505050565b6000610937610473565b60056000600160025461094a9190610e12565b815260200190815260200160002090508060010154341461097d5760405162461bcd60e51b815260040161049690610d09565b6004546040516001600160a01b0361010090920491909116903480156108fc02916000818181858888f193505050501580156109bd573d6000803e3d6000fd5b50336000908152600660205260408120600254600192906109df908490610e12565b81526020019081526020016000208190555033600760006001600254610a059190610e12565b815260200190815260200160002060006101000a8154816001600160a01b0302191690836001600160a01b031602179055507f23443ac3afaec974c2d4368824912f61a50fee541bcc94ec52414ba6a9b14aab33604051610a669190610bf7565b60405180910390a150565b6000805260056020908152604080516060810182527f05b8ccbb9d4d8fb16ea74ce3c29a41f1b461fbdaff4714a0d9a8eb05499746bc548082527f05b8ccbb9d4d8fb16ea74ce3c29a41f1b461fbdaff4714a0d9a8eb05499746bd549382018490527f05b8ccbb9d4d8fb16ea74ce3c29a41f1b461fbdaff4714a0d9a8eb05499746be5460ff161515828401819052925191937f0dfcd7239e4fae9fb8e8eaf046d05db549ffd323cd08def3f98bd31b4d933f7393610a6693610dbb565b60045461010090046001600160a01b031681565b600081356001600160a81b0381168114610b5b578182fd5b6001600160a01b031692915050565b60008060408385031215610b7c578182fd5b610b8583610b43565b946020939093013593505050565b600060208284031215610ba4578081fd5b5035919050565b60008060408385031215610bbd578182fd5b82359150610bcd60208401610b43565b90509250929050565b60008060408385031215610be8578182fd5b50508035926020909101359150565b6001600160a01b0391909116815260200190565b901515815260200190565b6020808252601690820152752a34b1b5b2ba103237b2b9903737ba1032bc34b9ba1760511b604082015260600190565b6020808252601c908201527f54686973207469636b6574206973206e6f7420666f722073616c652e00000000604082015260600190565b60208082526026908201527f526573616c65206973206e6f74207065726d697474656420666f72207468697360408201526508195d995b9d60d21b606082015260800190565b60208082526026908201527f416c6c207469636b657473206861766520616c7265616479206265656e20637260408201526532b0ba32b21760d11b606082015260800190565b60208082526019908201527f496e636f7272656374207061796d656e7420616d6f756e742e00000000000000604082015260600190565b60208082526025908201527f43616c6c6572206973206e6f7420746865206f776e6572206f662074686520746040820152641a58dad95d60da1b606082015260800190565b90815260200190565b9283526001600160a01b03918216602084015216604082015260600190565b918252602082015260400190565b92835260208301919091521515604082015260600190565b600082610dee57634e487b7160e01b81526012600452602481fd5b500490565b6000816000190483118215151615610e0d57610e0d610e44565b500290565b600082821015610e2457610e24610e44565b500390565b6000600019821415610e3d57610e3d610e44565b5060010190565b634e487b7160e01b600052601160045260246000fdfea26469706673582212209782cb4d589ccd271bdd7efd733a426717be466930d1f0bdf1e96fb0d12dd91564736f6c63430008000033",
  "source": "pragma solidity ^0.8.0;\r\n\r\ncontract Event {\r\n    uint public totalTickets;\r\n    uint public ticketPrice;\r\n    uint public ticketsSold = 0;\r\n    uint public resaleFee; // Fee as a percentage of the sale price\r\n    bool public allowResale;\r\n    address public host;\r\n    \r\n    struct Ticket {\r\n        uint ticketId;\r\n        uint price;\r\n        bool forSale;\r\n    }\r\n    \r\n    mapping(uint => Ticket) public tickets;\r\n    mapping(address => mapping(uint => uint)) public ownedTickets;\r\n    mapping(uint => address) ticketOwners;\r\n    event TicketCreated(uint ticketId);\r\n    event TicketPurchased(address buyer);\r\n    event TicketListedForResale(uint ticketId, uint price);\r\n    event TicketOwnershipTransferred(uint ticketId, address from, address to);\r\n    event LogTicket(uint ticketId, uint price, bool forSale);\r\n    \r\n    modifier onlyHost() {\r\n        require(msg.sender == host, \"Action restricted to event host.\");\r\n        _;\r\n    }\r\n    \r\n    constructor(uint _totalTickets, address _host, uint _price, bool _allowResale, uint _resaleFee) {\r\n        totalTickets = _totalTickets;\r\n        host = _host;\r\n        ticketPrice = _price; // Set the ticket price\r\n        allowResale = _allowResale;\r\n        resaleFee = _resaleFee;\r\n    }\r\n    \r\n    function checkTickets() public{\r\n        Ticket memory ticket = tickets[0];\r\n        emit LogTicket(ticket.ticketId, ticket.price, ticket.forSale);\r\n    }\r\n\r\n    function getTicketOwnership(address account, uint ticketId) public view returns(uint){\r\n        return ownedTickets[account][ticketId];\r\n    }\r\n\r\n    //TODO: cambiar ticketsSold para que no puedan tener dos tickets mismo id\r\n    function createTicket() public{\r\n        require(ticketsSold < totalTickets, \"All tickets have already been created.\");\r\n        tickets[ticketsSold] = Ticket({\r\n            ticketId: ticketsSold,\r\n            price: ticketPrice,\r\n            forSale: false\r\n        });\r\n        ticketsSold++;\r\n        // tickets.push(Ticket({\r\n        //     ticketId: tickets.length,\r\n        //     price: _price,\r\n        //     forSale: false\r\n        // }));\r\n\r\n        emit TicketCreated(ticketsSold);\r\n    }\r\n    \r\n    function buyTicket() public payable {\r\n        Ticket storage ticket;\r\n\r\n        createTicket();\r\n        ticket = tickets[ticketsSold - 1];\r\n\r\n        require(msg.value == ticket.price, \"Incorrect payment amount.\");\r\n\r\n        payable(host).transfer(msg.value);\r\n\r\n        ownedTickets[msg.sender][ticketsSold - 1] = 1;\r\n        ticketOwners[ticketsSold - 1] = msg.sender;\r\n        emit TicketPurchased(msg.sender); \r\n        }\r\n    function rebuyTicket(uint _ticketId) public payable {\r\n        require(_ticketId < ticketsSold, \"Ticket does not exist.\"); // Ensures the ticket exists\r\n        Ticket storage ticket = tickets[_ticketId];\r\n        require(ticket.forSale, \"This ticket is not for sale.\"); // Check if the ticket is available for sale\r\n        require(msg.value == ticket.price, \"Incorrect payment amount.\"); // Ensures the payment is correct\r\n\r\n        // The original owner gets the payment\r\n        address payable originalOwner = payable(ticketOwners[_ticketId]);\r\n        uint resaleFeeAmount = msg.value * resaleFee / 100;\r\n        uint paymentToOwner = msg.value - resaleFeeAmount;\r\n        originalOwner.transfer(paymentToOwner);\r\n        payable(host).transfer(resaleFeeAmount);\r\n        // Update ownership mapping and mark the ticket as not for sale\r\n        ownedTickets[originalOwner][_ticketId] = 0;\r\n        ownedTickets[msg.sender][_ticketId] = 1;\r\n        ticketOwners[_ticketId] = msg.sender;\r\n        ticket.forSale = false;\r\n\r\n        emit TicketPurchased(msg.sender); // Emit an event that the ticket has been purchased\r\n    }\r\n\r\n    function listTicketForResale(uint _ticketId, uint _price) public {\r\n        //TODO: Hacer privado\r\n        require(allowResale == true, 'Resale is not permitted for this event');\r\n        require(_ticketId < ticketsSold, \"Ticket does not exist.\");\r\n        require(ticketOwners[_ticketId] == msg.sender, \"Caller is not the owner of the ticket\"); \r\n\r\n        Ticket storage ticket = tickets[_ticketId];\r\n        \r\n        ticket.forSale = true;\r\n        ticket.price = _price;\r\n        tickets[_ticketId] = ticket;\r\n        emit TicketListedForResale(_ticketId, _price);\r\n    }\r\n\r\n    function checkTicketForSale(uint ticketId) public view returns(bool){\r\n        return tickets[ticketId].forSale;\r\n    }\r\n\r\n    function checkPrice(uint ticketId) public view returns(uint){\r\n        return tickets[ticketId].price;\r\n    }\r\n    \r\n    function transferTicket(uint _ticketId, address _to) public {\r\n        require(_ticketId < ticketsSold, \"Ticket does not exist.\");\r\n        ownedTickets[_to][_ticketId] = 1; // Record the ownership\r\n        emit TicketOwnershipTransferred(_ticketId, msg.sender, _to);\r\n    }\r\n    \r\n    // function updateEventDetails(string memory _eventName, uint _eventDate, string memory _location) public onlyHost {\r\n    //     location = _location;\r\n    //     emit EventUpdated(_eventName, _eventDate, _location);\r\n    // }\r\n}\r\n",
  "sourcePath": "C:/Users/dforn/Documents/HackaTRON/EventChain/blockchain/contracts/event.sol",
  "compiler": {
    "name": "solc",
    "version": "0.8.0+commit.7c2e6412.Emscripten.clang"
  },
  "schemaVersion": "2.0.1",
  "updatedAt": "2024-05-01T11:14:31.291Z"
}