{
  "contractName": "Event",
  "abi": [
    {
      "inputs": [
        {
          "internalType": "uint256",
          "name": "_totalTickets",
          "type": "uint256"
        },
        {
          "internalType": "address",
          "name": "_host",
          "type": "address"
        },
        {
          "internalType": "uint256",
          "name": "_price",
          "type": "uint256"
        }
      ],
      "stateMutability": "nonpayable",
      "type": "constructor"
    },
    {
      "anonymous": false,
      "inputs": [
        {
          "indexed": false,
          "internalType": "uint256",
          "name": "ticketId",
          "type": "uint256"
        },
        {
          "indexed": false,
          "internalType": "uint256",
          "name": "price",
          "type": "uint256"
        },
        {
          "indexed": false,
          "internalType": "bool",
          "name": "forSale",
          "type": "bool"
        }
      ],
      "name": "LogTicket",
      "type": "event"
    },
    {
      "anonymous": false,
      "inputs": [
        {
          "indexed": false,
          "internalType": "uint256",
          "name": "ticketId",
          "type": "uint256"
        }
      ],
      "name": "TicketCreated",
      "type": "event"
    },
    {
      "anonymous": false,
      "inputs": [
        {
          "indexed": false,
          "internalType": "uint256",
          "name": "ticketId",
          "type": "uint256"
        },
        {
          "indexed": false,
          "internalType": "uint256",
          "name": "price",
          "type": "uint256"
        }
      ],
      "name": "TicketListedForResale",
      "type": "event"
    },
    {
      "anonymous": false,
      "inputs": [
        {
          "indexed": false,
          "internalType": "uint256",
          "name": "ticketId",
          "type": "uint256"
        },
        {
          "indexed": false,
          "internalType": "address",
          "name": "from",
          "type": "address"
        },
        {
          "indexed": false,
          "internalType": "address",
          "name": "to",
          "type": "address"
        }
      ],
      "name": "TicketOwnershipTransferred",
      "type": "event"
    },
    {
      "anonymous": false,
      "inputs": [
        {
          "indexed": false,
          "internalType": "address",
          "name": "buyer",
          "type": "address"
        }
      ],
      "name": "TicketPurchased",
      "type": "event"
    },
    {
      "inputs": [],
      "name": "buyTicket",
      "outputs": [],
      "stateMutability": "payable",
      "type": "function"
    },
    {
      "inputs": [
        {
          "internalType": "uint256",
          "name": "ticketId",
          "type": "uint256"
        }
      ],
      "name": "checkPrice",
      "outputs": [
        {
          "internalType": "uint256",
          "name": "",
          "type": "uint256"
        }
      ],
      "stateMutability": "view",
      "type": "function"
    },
    {
      "inputs": [
        {
          "internalType": "uint256",
          "name": "ticketId",
          "type": "uint256"
        }
      ],
      "name": "checkTicketForSale",
      "outputs": [
        {
          "internalType": "bool",
          "name": "",
          "type": "bool"
        }
      ],
      "stateMutability": "view",
      "type": "function"
    },
    {
      "inputs": [],
      "name": "checkTickets",
      "outputs": [],
      "stateMutability": "nonpayable",
      "type": "function"
    },
    {
      "inputs": [],
      "name": "createTicket",
      "outputs": [],
      "stateMutability": "nonpayable",
      "type": "function"
    },
    {
      "inputs": [
        {
          "internalType": "address",
          "name": "account",
          "type": "address"
        },
        {
          "internalType": "uint256",
          "name": "ticketId",
          "type": "uint256"
        }
      ],
      "name": "getTicketOwnership",
      "outputs": [
        {
          "internalType": "uint256",
          "name": "",
          "type": "uint256"
        }
      ],
      "stateMutability": "view",
      "type": "function"
    },
    {
      "inputs": [],
      "name": "host",
      "outputs": [
        {
          "internalType": "address",
          "name": "",
          "type": "address"
        }
      ],
      "stateMutability": "view",
      "type": "function"
    },
    {
      "inputs": [
        {
          "internalType": "uint256",
          "name": "_ticketId",
          "type": "uint256"
        },
        {
          "internalType": "uint256",
          "name": "_price",
          "type": "uint256"
        }
      ],
      "name": "listTicketForResale",
      "outputs": [],
      "stateMutability": "nonpayable",
      "type": "function"
    },
    {
      "inputs": [
        {
          "internalType": "address",
          "name": "",
          "type": "address"
        },
        {
          "internalType": "uint256",
          "name": "",
          "type": "uint256"
        }
      ],
      "name": "ownedTickets",
      "outputs": [
        {
          "internalType": "uint256",
          "name": "",
          "type": "uint256"
        }
      ],
      "stateMutability": "view",
      "type": "function"
    },
    {
      "inputs": [
        {
          "internalType": "uint256",
          "name": "_ticketId",
          "type": "uint256"
        }
      ],
      "name": "rebuyTicket",
      "outputs": [],
      "stateMutability": "payable",
      "type": "function"
    },
    {
      "inputs": [],
      "name": "ticketPrice",
      "outputs": [
        {
          "internalType": "uint256",
          "name": "",
          "type": "uint256"
        }
      ],
      "stateMutability": "view",
      "type": "function"
    },
    {
      "inputs": [
        {
          "internalType": "uint256",
          "name": "",
          "type": "uint256"
        }
      ],
      "name": "tickets",
      "outputs": [
        {
          "internalType": "uint256",
          "name": "ticketId",
          "type": "uint256"
        },
        {
          "internalType": "uint256",
          "name": "price",
          "type": "uint256"
        },
        {
          "internalType": "bool",
          "name": "forSale",
          "type": "bool"
        }
      ],
      "stateMutability": "view",
      "type": "function"
    },
    {
      "inputs": [],
      "name": "ticketsSold",
      "outputs": [
        {
          "internalType": "uint256",
          "name": "",
          "type": "uint256"
        }
      ],
      "stateMutability": "view",
      "type": "function"
    },
    {
      "inputs": [],
      "name": "totalTickets",
      "outputs": [
        {
          "internalType": "uint256",
          "name": "",
          "type": "uint256"
        }
      ],
      "stateMutability": "view",
      "type": "function"
    },
    {
      "inputs": [
        {
          "internalType": "uint256",
          "name": "_ticketId",
          "type": "uint256"
        },
        {
          "internalType": "address",
          "name": "_to",
          "type": "address"
        }
      ],
      "name": "transferTicket",
      "outputs": [],
      "stateMutability": "nonpayable",
      "type": "function"
    }
  ],
  "bytecode": "0x6080604052600060025534801561001557600080fd5b50d3801561002257600080fd5b50d2801561002f57600080fd5b50604051610d28380380610d2883398101604081905261004e9161007c565b600092909255600380546001600160a01b0319166001600160a01b03929092169190911790556001556100cb565b600080600060608486031215610090578283fd5b835160208501519093506001600160a81b03811681146100ae578283fd5b6040949094015192956001600160a01b0390941694509192915050565b610c4e806100da6000396000f3fe6080604052600436106100e85760003560e01c8063679ebf1a1161008a578063e5dcf10111610059578063e5dcf10114610373578063edca914c14610386578063f3e717561461038e578063f437bc59146103bd576100e8565b8063679ebf1a146102a15780638f15024f146102db57806399eb37591461030a578063dd11247e14610344576100e8565b80634459723d116100c65780634459723d1461019d578063456993d7146101d757806350b447121461021e5780636053b0ef14610267576100e8565b80631209b1f6146100ed5780631d271709146101325780631de7463a14610163575b600080fd5b3480156100f957600080fd5b50d3801561010657600080fd5b50d2801561011357600080fd5b5061011c6103f9565b6040516101299190610b82565b60405180910390f35b34801561013e57600080fd5b50d3801561014b57600080fd5b50d2801561015857600080fd5b506101616103ff565b005b34801561016f57600080fd5b50d3801561017c57600080fd5b50d2801561018957600080fd5b5061011c610198366004610a1b565b6104c4565b3480156101a957600080fd5b50d380156101b657600080fd5b50d280156101c357600080fd5b5061011c6101d23660046109f2565b6104d9565b3480156101e357600080fd5b50d380156101f057600080fd5b50d280156101fd57600080fd5b5061021161020c366004610a1b565b610501565b6040516101299190610a93565b34801561022a57600080fd5b50d3801561023757600080fd5b50d2801561024457600080fd5b50610258610253366004610a1b565b610519565b60405161012993929190610bb8565b34801561027357600080fd5b50d3801561028057600080fd5b50d2801561028d57600080fd5b5061016161029c366004610a5e565b61053d565b3480156102ad57600080fd5b50d380156102ba57600080fd5b50d280156102c757600080fd5b506101616102d6366004610a33565b6105c3565b3480156102e757600080fd5b50d380156102f457600080fd5b50d2801561030157600080fd5b5061011c61064b565b34801561031657600080fd5b50d3801561032357600080fd5b50d2801561033057600080fd5b5061011c61033f3660046109f2565b610651565b34801561035057600080fd5b50d3801561035d57600080fd5b50d2801561036a57600080fd5b5061011c61066e565b610161610381366004610a1b565b610674565b6101616107c1565b34801561039a57600080fd5b50d380156103a757600080fd5b50d280156103b457600080fd5b506101616108fe565b3480156103c957600080fd5b50d380156103d657600080fd5b50d280156103e357600080fd5b506103ec6109bc565b6040516101299190610a7f565b60015481565b6000546002541061042b5760405162461bcd60e51b815260040161042290610b05565b60405180910390fd5b60408051606081018252600280548083526001805460208086019182526000868801818152948152600490915295862094518555519084015551918101805460ff19169215159290921790915580549161048483610be7565b91905055507f017816d6671654d29260799b31a628be724d7e4fa8e22da3fae8ab443ec0a3c36002546040516104ba9190610b82565b60405180910390a1565b60009081526004602052604090206001015490565b6001600160a01b03919091166000908152600560209081526040808320938352929052205490565b60009081526004602052604090206002015460ff1690565b60046020526000908152604090208054600182015460029092015490919060ff1683565b600254821061055e5760405162461bcd60e51b815260040161042290610a9e565b6000828152600460205260409081902060028101805460ff19166001908117909155810183905590517f2d8cbebfd87cb19b7bed949f9c8d5a80d939133966ef331ac575d69160ea0465906105b69085908590610baa565b60405180910390a1505050565b60025482106105e45760405162461bcd60e51b815260040161042290610a9e565b6001600160a01b03811660009081526005602090815260408083208584529091529081902060019055517f28f6f1dce7cc33c97d4fb9baab19ba3c5f596ea2f56c0ae92d7511aa0dba97979061063f90849033908590610b8b565b60405180910390a15050565b60025481565b600560209081526000928352604080842090915290825290205481565b60005481565b60025481106106955760405162461bcd60e51b815260040161042290610a9e565b6000818152600460205260409020600281015460ff166106c75760405162461bcd60e51b815260040161042290610ace565b806001015434146106ea5760405162461bcd60e51b815260040161042290610b4b565b6000828152600660205260408082205490516001600160a01b039091169182913480156108fc0292909190818181858888f19350505050158015610732573d6000803e3d6000fd5b506001600160a01b038116600090815260056020818152604080842087855282528084208490553380855292825280842087855282528084206001905560069091529182902080546001600160a01b0319168217905560028401805460ff1916905590517f23443ac3afaec974c2d4368824912f61a50fee541bcc94ec52414ba6a9b14aab916105b691610a7f565b60006107cb6103ff565b6004600060016002546107de9190610bd0565b81526020019081526020016000209050806001015434146108115760405162461bcd60e51b815260040161042290610b4b565b6003546040516001600160a01b03909116903480156108fc02916000818181858888f1935050505015801561084a573d6000803e3d6000fd5b503360009081526005602052604081206002546001929061086c908490610bd0565b815260200190815260200160002081905550336006600060016002546108929190610bd0565b815260200190815260200160002060006101000a8154816001600160a01b0302191690836001600160a01b031602179055507f23443ac3afaec974c2d4368824912f61a50fee541bcc94ec52414ba6a9b14aab336040516108f39190610a7f565b60405180910390a150565b6000805260046020908152604080516060810182527f17ef568e3e12ab5b9c7254a8d58478811de00f9e6eb34345acd53bf8fd09d3ec548082527f17ef568e3e12ab5b9c7254a8d58478811de00f9e6eb34345acd53bf8fd09d3ed549382018490527f17ef568e3e12ab5b9c7254a8d58478811de00f9e6eb34345acd53bf8fd09d3ee5460ff161515828401819052925191937f0dfcd7239e4fae9fb8e8eaf046d05db549ffd323cd08def3f98bd31b4d933f73936108f393610bb8565b6003546001600160a01b031681565b600081356001600160a81b03811681146109e3578182fd5b6001600160a01b031692915050565b60008060408385031215610a04578182fd5b610a0d836109cb565b946020939093013593505050565b600060208284031215610a2c578081fd5b5035919050565b60008060408385031215610a45578182fd5b82359150610a55602084016109cb565b90509250929050565b60008060408385031215610a70578182fd5b50508035926020909101359150565b6001600160a01b0391909116815260200190565b901515815260200190565b6020808252601690820152752a34b1b5b2ba103237b2b9903737ba1032bc34b9ba1760511b604082015260600190565b6020808252601c908201527f54686973207469636b6574206973206e6f7420666f722073616c652e00000000604082015260600190565b60208082526026908201527f416c6c207469636b657473206861766520616c7265616479206265656e20637260408201526532b0ba32b21760d11b606082015260800190565b60208082526019908201527f496e636f7272656374207061796d656e7420616d6f756e742e00000000000000604082015260600190565b90815260200190565b9283526001600160a01b03918216602084015216604082015260600190565b918252602082015260400190565b92835260208301919091521515604082015260600190565b600082821015610be257610be2610c02565b500390565b6000600019821415610bfb57610bfb610c02565b5060010190565b634e487b7160e01b600052601160045260246000fdfea264697066735822122098a3da8bbf8f5266c716694e89e83f372f7a9aa20911333bfc23b95625debf4264736f6c63430008000033",
  "source": "pragma solidity ^0.8.0;\r\n\r\ncontract Event {\r\n    uint public totalTickets;\r\n    uint public ticketPrice;\r\n    uint public ticketsSold = 0;\r\n    address public host;\r\n    \r\n    struct Ticket {\r\n        uint ticketId;\r\n        uint price;\r\n        bool forSale;\r\n    }\r\n    \r\n    mapping(uint => Ticket) public tickets;\r\n    mapping(address => mapping(uint => uint)) public ownedTickets;\r\n    mapping(uint => address) ticketOwners;\r\n    event TicketCreated(uint ticketId);\r\n    event TicketPurchased(address buyer);\r\n    event TicketListedForResale(uint ticketId, uint price);\r\n    event TicketOwnershipTransferred(uint ticketId, address from, address to);\r\n    event LogTicket(uint ticketId, uint price, bool forSale);\r\n    \r\n    modifier onlyHost() {\r\n        require(msg.sender == host, \"Action restricted to event host.\");\r\n        _;\r\n    }\r\n    \r\n    constructor(uint _totalTickets, address _host, uint _price) {\r\n        totalTickets = _totalTickets;\r\n        host = _host;\r\n        ticketPrice = _price; // Set the ticket price\r\n    }\r\n    \r\n    function checkTickets() public{\r\n        Ticket memory ticket = tickets[0];\r\n        emit LogTicket(ticket.ticketId, ticket.price, ticket.forSale);\r\n    }\r\n\r\n    function getTicketOwnership(address account, uint ticketId) public view returns(uint){\r\n        return ownedTickets[account][ticketId];\r\n    }\r\n\r\n    function createTicket() public{\r\n        require(ticketsSold < totalTickets, \"All tickets have already been created.\");\r\n        tickets[ticketsSold] = Ticket({\r\n            ticketId: ticketsSold,\r\n            price: ticketPrice,\r\n            forSale: false\r\n        });\r\n\r\n        ticketsSold++;\r\n        // tickets.push(Ticket({\r\n        //     ticketId: tickets.length,\r\n        //     price: _price,\r\n        //     forSale: false\r\n        // }));\r\n\r\n        emit TicketCreated(ticketsSold);\r\n    }\r\n    \r\n    function buyTicket() public payable {\r\n            Ticket storage ticket;\r\n\r\n            createTicket();\r\n            ticket = tickets[ticketsSold - 1];\r\n\r\n            require(msg.value == ticket.price, \"Incorrect payment amount.\");\r\n\r\n            payable(host).transfer(msg.value);\r\n\r\n            ownedTickets[msg.sender][ticketsSold - 1] = 1;\r\n            ticketOwners[ticketsSold - 1] = msg.sender;\r\n            emit TicketPurchased(msg.sender); \r\n        }\r\n    function rebuyTicket(uint _ticketId) public payable {\r\n        require(_ticketId < ticketsSold, \"Ticket does not exist.\"); // Ensures the ticket exists\r\n        Ticket storage ticket = tickets[_ticketId];\r\n        \r\n        require(ticket.forSale, \"This ticket is not for sale.\"); // Check if the ticket is available for sale\r\n        require(msg.value == ticket.price, \"Incorrect payment amount.\"); // Ensures the payment is correct\r\n\r\n        // The original owner gets the payment\r\n        address payable originalOwner = payable(ticketOwners[_ticketId]);\r\n        originalOwner.transfer(msg.value);\r\n\r\n        // Update ownership mapping and mark the ticket as not for sale\r\n        ownedTickets[originalOwner][_ticketId] = 0;\r\n        ownedTickets[msg.sender][_ticketId] = 1;\r\n        ticketOwners[_ticketId] = msg.sender;\r\n        ticket.forSale = false;\r\n\r\n        emit TicketPurchased(msg.sender); // Emit an event that the ticket has been purchased\r\n    }\r\n\r\n    function listTicketForResale(uint _ticketId, uint _price) public {\r\n        require(_ticketId < ticketsSold, \"Ticket does not exist.\");\r\n        Ticket storage ticket = tickets[_ticketId];\r\n        \r\n        ticket.forSale = true;\r\n        ticket.price = _price;\r\n        emit TicketListedForResale(_ticketId, _price);\r\n    }\r\n\r\n    function checkTicketForSale(uint ticketId) public view returns(bool){\r\n        return tickets[ticketId].forSale;\r\n    }\r\n\r\n    function checkPrice(uint ticketId) public view returns(uint){\r\n        return tickets[ticketId].price;\r\n    }\r\n    \r\n    function transferTicket(uint _ticketId, address _to) public {\r\n        require(_ticketId < ticketsSold, \"Ticket does not exist.\");\r\n        ownedTickets[_to][_ticketId] = 1; // Record the ownership\r\n        emit TicketOwnershipTransferred(_ticketId, msg.sender, _to);\r\n    }\r\n    \r\n    // function updateEventDetails(string memory _eventName, uint _eventDate, string memory _location) public onlyHost {\r\n    //     location = _location;\r\n    //     emit EventUpdated(_eventName, _eventDate, _location);\r\n    // }\r\n}\r\n",
  "sourcePath": "C:/Users/dforn/Documents/HackaTRON/EventChain/contracts/event.sol",
  "compiler": {
    "name": "solc",
    "version": "0.8.0+commit.7c2e6412.Emscripten.clang"
  },
  "schemaVersion": "2.0.1",
  "updatedAt": "2024-04-21T12:25:54.582Z"
}