{
  "contractName": "Event",
  "abi": [
    {
      "inputs": [
        {
          "internalType": "string",
          "name": "_eventName",
          "type": "string"
        },
        {
          "internalType": "uint256",
          "name": "_eventDate",
          "type": "uint256"
        },
        {
          "internalType": "string",
          "name": "_location",
          "type": "string"
        },
        {
          "internalType": "uint256",
          "name": "_totalTickets",
          "type": "uint256"
        },
        {
          "internalType": "address",
          "name": "_host",
          "type": "address"
        }
      ],
      "stateMutability": "nonpayable",
      "type": "constructor"
    },
    {
      "anonymous": false,
      "inputs": [
        {
          "indexed": false,
          "internalType": "string",
          "name": "eventName",
          "type": "string"
        },
        {
          "indexed": false,
          "internalType": "uint256",
          "name": "eventDate",
          "type": "uint256"
        },
        {
          "indexed": false,
          "internalType": "string",
          "name": "location",
          "type": "string"
        }
      ],
      "name": "EventUpdated",
      "type": "event"
    },
    {
      "anonymous": false,
      "inputs": [
        {
          "indexed": false,
          "internalType": "uint256",
          "name": "ticketId",
          "type": "uint256"
        },
        {
          "indexed": false,
          "internalType": "uint256",
          "name": "price",
          "type": "uint256"
        }
      ],
      "name": "TicketCreated",
      "type": "event"
    },
    {
      "anonymous": false,
      "inputs": [
        {
          "indexed": false,
          "internalType": "uint256",
          "name": "ticketId",
          "type": "uint256"
        },
        {
          "indexed": false,
          "internalType": "uint256",
          "name": "price",
          "type": "uint256"
        }
      ],
      "name": "TicketListedForResale",
      "type": "event"
    },
    {
      "anonymous": false,
      "inputs": [
        {
          "indexed": false,
          "internalType": "uint256",
          "name": "ticketId",
          "type": "uint256"
        },
        {
          "indexed": false,
          "internalType": "address",
          "name": "from",
          "type": "address"
        },
        {
          "indexed": false,
          "internalType": "address",
          "name": "to",
          "type": "address"
        }
      ],
      "name": "TicketOwnershipTransferred",
      "type": "event"
    },
    {
      "anonymous": false,
      "inputs": [
        {
          "indexed": false,
          "internalType": "address",
          "name": "buyer",
          "type": "address"
        },
        {
          "indexed": false,
          "internalType": "uint256",
          "name": "ticketId",
          "type": "uint256"
        }
      ],
      "name": "TicketPurchased",
      "type": "event"
    },
    {
      "inputs": [
        {
          "internalType": "uint256",
          "name": "_ticketId",
          "type": "uint256"
        }
      ],
      "name": "buyTicket",
      "outputs": [],
      "stateMutability": "payable",
      "type": "function"
    },
    {
      "inputs": [
        {
          "internalType": "uint256",
          "name": "_price",
          "type": "uint256"
        }
      ],
      "name": "createTicket",
      "outputs": [],
      "stateMutability": "nonpayable",
      "type": "function"
    },
    {
      "inputs": [],
      "name": "eventDate",
      "outputs": [
        {
          "internalType": "uint256",
          "name": "",
          "type": "uint256"
        }
      ],
      "stateMutability": "view",
      "type": "function"
    },
    {
      "inputs": [],
      "name": "eventName",
      "outputs": [
        {
          "internalType": "string",
          "name": "",
          "type": "string"
        }
      ],
      "stateMutability": "view",
      "type": "function"
    },
    {
      "inputs": [],
      "name": "host",
      "outputs": [
        {
          "internalType": "address",
          "name": "",
          "type": "address"
        }
      ],
      "stateMutability": "view",
      "type": "function"
    },
    {
      "inputs": [
        {
          "internalType": "uint256",
          "name": "_ticketId",
          "type": "uint256"
        },
        {
          "internalType": "uint256",
          "name": "_price",
          "type": "uint256"
        }
      ],
      "name": "listTicketForResale",
      "outputs": [],
      "stateMutability": "nonpayable",
      "type": "function"
    },
    {
      "inputs": [],
      "name": "location",
      "outputs": [
        {
          "internalType": "string",
          "name": "",
          "type": "string"
        }
      ],
      "stateMutability": "view",
      "type": "function"
    },
    {
      "inputs": [
        {
          "internalType": "address",
          "name": "",
          "type": "address"
        },
        {
          "internalType": "uint256",
          "name": "",
          "type": "uint256"
        }
      ],
      "name": "ownedTickets",
      "outputs": [
        {
          "internalType": "uint256",
          "name": "",
          "type": "uint256"
        }
      ],
      "stateMutability": "view",
      "type": "function"
    },
    {
      "inputs": [
        {
          "internalType": "uint256",
          "name": "",
          "type": "uint256"
        }
      ],
      "name": "tickets",
      "outputs": [
        {
          "internalType": "uint256",
          "name": "ticketId",
          "type": "uint256"
        },
        {
          "internalType": "address",
          "name": "owner",
          "type": "address"
        },
        {
          "internalType": "uint256",
          "name": "price",
          "type": "uint256"
        },
        {
          "internalType": "bool",
          "name": "forSale",
          "type": "bool"
        }
      ],
      "stateMutability": "view",
      "type": "function"
    },
    {
      "inputs": [],
      "name": "ticketsSold",
      "outputs": [
        {
          "internalType": "uint256",
          "name": "",
          "type": "uint256"
        }
      ],
      "stateMutability": "view",
      "type": "function"
    },
    {
      "inputs": [],
      "name": "totalTickets",
      "outputs": [
        {
          "internalType": "uint256",
          "name": "",
          "type": "uint256"
        }
      ],
      "stateMutability": "view",
      "type": "function"
    },
    {
      "inputs": [
        {
          "internalType": "uint256",
          "name": "_ticketId",
          "type": "uint256"
        },
        {
          "internalType": "address",
          "name": "_to",
          "type": "address"
        }
      ],
      "name": "transferTicket",
      "outputs": [],
      "stateMutability": "nonpayable",
      "type": "function"
    },
    {
      "inputs": [
        {
          "internalType": "string",
          "name": "_eventName",
          "type": "string"
        },
        {
          "internalType": "uint256",
          "name": "_eventDate",
          "type": "uint256"
        },
        {
          "internalType": "string",
          "name": "_location",
          "type": "string"
        }
      ],
      "name": "updateEventDetails",
      "outputs": [],
      "stateMutability": "nonpayable",
      "type": "function"
    }
  ],
  "bytecode": "0x608060405260006004553480156200001657600080fd5b50d380156200002457600080fd5b50d280156200003257600080fd5b506040516200128138038062001281833981016040819052620000559162000206565b84516200006a906000906020880190620000b5565b506001849055825162000085906002906020860190620000b5565b50600391909155600580546001600160a01b0319166001600160a01b0390921691909117905550620002ff915050565b828054620000c390620002ac565b90600052602060002090601f016020900481019282620000e7576000855562000132565b82601f106200010257805160ff191683800117855562000132565b8280016001018555821562000132579182015b828111156200013257825182559160200191906001019062000115565b506200014092915062000144565b5090565b5b8082111562000140576000815560010162000145565b600082601f8301126200016c578081fd5b81516001600160401b0380821115620001895762000189620002e9565b6040516020601f8401601f1916820181018381118382101715620001b157620001b1620002e9565b6040528382528584018101871015620001c8578485fd5b8492505b83831015620001eb5785830181015182840182015291820191620001cc565b83831115620001fc57848185840101525b5095945050505050565b600080600080600060a086880312156200021e578081fd5b85516001600160401b038082111562000235578283fd5b6200024389838a016200015b565b965060208801519550604088015191508082111562000260578283fd5b506200026f888289016200015b565b60608801516080890151919550935090506001600160a81b038116811462000295578182fd5b9497939650919450926001600160a01b0316919050565b600281046001821680620002c157607f821691505b60208210811415620002e357634e487b7160e01b600052602260045260246000fd5b50919050565b634e487b7160e01b600052604160045260246000fd5b610f72806200030f6000396000f3fe6080604052600436106100c25760003560e01c806367dd74ca1161007f5780638f15024f116100595780638f15024f146102be57806399eb3759146102ed578063dd11247e14610327578063f437bc5914610356576100c2565b806367dd74ca146102425780637383d15e146102555780638043c9c01461028f576100c2565b80630497879c146100c75780634bfbe5df1461010357806350b4471214610148578063516f279e146101925780636053b0ef146101ce578063679ebf1a14610208575b600080fd5b3480156100d357600080fd5b50d380156100e057600080fd5b50d280156100ed57600080fd5b506101016100fc366004610bd5565b610392565b005b34801561010f57600080fd5b50d3801561011c57600080fd5b50d2801561012957600080fd5b5061013261052a565b60405161013f9190610e47565b60405180910390f35b34801561015457600080fd5b50d3801561016157600080fd5b50d2801561016e57600080fd5b5061018261017d366004610bd5565b610530565b60405161013f9493929190610e6f565b34801561019e57600080fd5b50d380156101ab57600080fd5b50d280156101b857600080fd5b506101c1610576565b60405161013f9190610cb1565b3480156101da57600080fd5b50d380156101e757600080fd5b50d280156101f457600080fd5b50610101610203366004610c18565b610604565b34801561021457600080fd5b50d3801561022157600080fd5b50d2801561022e57600080fd5b5061010161023d366004610bed565b6106dd565b610101610250366004610bd5565b6107b2565b34801561026157600080fd5b50d3801561026e57600080fd5b50d2801561027b57600080fd5b5061010161028a366004610b6b565b61091e565b34801561029b57600080fd5b50d380156102a857600080fd5b50d280156102b557600080fd5b506101c16109a8565b3480156102ca57600080fd5b50d380156102d757600080fd5b50d280156102e457600080fd5b506101326109b5565b3480156102f957600080fd5b50d3801561030657600080fd5b50d2801561031357600080fd5b50610132610322366004610b42565b6109bb565b34801561033357600080fd5b50d3801561034057600080fd5b50d2801561034d57600080fd5b506101326109ec565b34801561036257600080fd5b50d3801561036f57600080fd5b50d2801561037c57600080fd5b506103856109f2565b60405161013f9190610c84565b6005546001600160a01b031633146103c55760405162461bcd60e51b81526004016103bc90610d30565b60405180910390fd5b600354600654106103e85760405162461bcd60e51b81526004016103bc90610d65565b60408051608081018252600680548083523060208401908152938301858152600060608501818152600180850186559185905294517ff652222313e28459528d920b65115c16c04f3efc82aaedc97be59f3f377c0d3f60049094029384015594517ff652222313e28459528d920b65115c16c04f3efc82aaedc97be59f3f377c0d40830180546001600160a01b0319166001600160a01b03909216919091179055517ff652222313e28459528d920b65115c16c04f3efc82aaedc97be59f3f377c0d4182015591517ff652222313e28459528d920b65115c16c04f3efc82aaedc97be59f3f377c0d42909201805460ff191692151592909217909155547fde72d886343740933ca9656ec06b338266af1ba9a7ab7b1439cd1144def2d8ce9161051091610ea3565b8260405161051f929190610e95565b60405180910390a150565b60015481565b6006818154811061054057600080fd5b600091825260209091206004909102018054600182015460028301546003909301549193506001600160a01b0316919060ff1684565b6002805461058390610eba565b80601f01602080910402602001604051908101604052809291908181526020018280546105af90610eba565b80156105fc5780601f106105d1576101008083540402835291602001916105fc565b820191906000526020600020905b8154815290600101906020018083116105df57829003601f168201915b505050505081565b60065482106106255760405162461bcd60e51b81526004016103bc90610d00565b60006006838154811061064857634e487b7160e01b600052603260045260246000fd5b600091825260209091206001600490920201908101549091506001600160a01b031633146106885760405162461bcd60e51b81526004016103bc90610de2565b60038101805460ff19166001179055600281018290556040517f2d8cbebfd87cb19b7bed949f9c8d5a80d939133966ef331ac575d69160ea0465906106d09085908590610e95565b60405180910390a1505050565b60065482106106fe5760405162461bcd60e51b81526004016103bc90610d00565b60006006838154811061072157634e487b7160e01b600052603260045260246000fd5b600091825260209091206001600490920201908101549091506001600160a01b031633146107615760405162461bcd60e51b81526004016103bc90610de2565b6001810180546001600160a01b0319166001600160a01b0384161790556040517f28f6f1dce7cc33c97d4fb9baab19ba3c5f596ea2f56c0ae92d7511aa0dba9797906106d090859033908690610e50565b60065481106107d35760405162461bcd60e51b81526004016103bc90610d00565b6000600682815481106107f657634e487b7160e01b600052603260045260246000fd5b60009182526020909120600490910201600381015490915060ff1661082d5760405162461bcd60e51b81526004016103bc90610e19565b806002015434146108505760405162461bcd60e51b81526004016103bc90610dab565b6001810180546001600160a01b0319163317905560038101805460ff191690556004805490600061088083610ef5565b90915550506005546040516001600160a01b03909116903480156108fc02916000818181858888f193505050501580156108be573d6000803e3d6000fd5b5033600081815260076020908152604080832080546001810182559084529190922001849055517f0668f5b446eb814fe35b3206f43f14bd8567ba04ddaf7a3ee56516929ab22ccb91610912918590610c98565b60405180910390a15050565b6005546001600160a01b031633146109485760405162461bcd60e51b81526004016103bc90610d30565b825161095b906000906020860190610a01565b5060018290558051610974906002906020840190610a01565b507f2626cb400680a6aaaa118e231510c585fa53552365f9d127f078ba16c75328398383836040516106d093929190610ccb565b6000805461058390610eba565b60045481565b600760205281600052604060002081815481106109d757600080fd5b90600052602060002001600091509150505481565b60035481565b6005546001600160a01b031681565b828054610a0d90610eba565b90600052602060002090601f016020900481019282610a2f5760008555610a75565b82601f10610a4857805160ff1916838001178555610a75565b82800160010185558215610a75579182015b82811115610a75578251825591602001919060010190610a5a565b50610a81929150610a85565b5090565b5b80821115610a815760008155600101610a86565b600081356001600160a81b0381168114610ab2578182fd5b6001600160a01b031692915050565b600082601f830112610ad1578081fd5b813567ffffffffffffffff80821115610aec57610aec610f26565b604051601f8301601f191681016020018281118282101715610b1057610b10610f26565b604052828152848301602001861015610b27578384fd5b82602086016020830137918201602001929092529392505050565b60008060408385031215610b54578182fd5b610b5d83610a9a565b946020939093013593505050565b600080600060608486031215610b7f578081fd5b833567ffffffffffffffff80821115610b96578283fd5b610ba287838801610ac1565b9450602086013593506040860135915080821115610bbe578283fd5b50610bcb86828701610ac1565b9150509250925092565b600060208284031215610be6578081fd5b5035919050565b60008060408385031215610bff578182fd5b82359150610c0f60208401610a9a565b90509250929050565b60008060408385031215610c2a578182fd5b50508035926020909101359150565b60008151808452815b81811015610c5e57602081850181015186830182015201610c42565b81811115610c6f5782602083870101525b50601f01601f19169290920160200192915050565b6001600160a01b0391909116815260200190565b6001600160a01b03929092168252602082015260400190565b600060208252610cc46020830184610c39565b9392505050565b600060608252610cde6060830186610c39565b8460208401528281036040840152610cf68185610c39565b9695505050505050565b6020808252601690820152752a34b1b5b2ba103237b2b9903737ba1032bc34b9ba1760511b604082015260600190565b6020808252818101527f416374696f6e207265737472696374656420746f206576656e7420686f73742e604082015260600190565b60208082526026908201527f416c6c207469636b657473206861766520616c7265616479206265656e20637260408201526532b0ba32b21760d11b606082015260800190565b60208082526019908201527f496e636f7272656374207061796d656e7420616d6f756e742e00000000000000604082015260600190565b6020808252601b908201527f596f7520646f206e6f74206f776e2074686973207469636b65742e0000000000604082015260600190565b6020808252601490820152732a34b1b5b2ba103737ba103337b91039b0b6329760611b604082015260600190565b90815260200190565b9283526001600160a01b03918216602084015216604082015260600190565b9384526001600160a01b0392909216602084015260408301521515606082015260800190565b918252602082015260400190565b600082821015610eb557610eb5610f10565b500390565b600281046001821680610ece57607f821691505b60208210811415610eef57634e487b7160e01b600052602260045260246000fd5b50919050565b6000600019821415610f0957610f09610f10565b5060010190565b634e487b7160e01b600052601160045260246000fd5b634e487b7160e01b600052604160045260246000fdfea264697066735822122099cb7c52560f546f6b10a56b612d58f6044ebdd341c37af7de71008a7d7f483564736f6c63430008000033",
  "source": "pragma solidity ^0.8.0;\n\ncontract Event {\n    string public eventName;\n    uint public eventDate;\n    string public location;\n    uint public totalTickets;\n    uint public ticketsSold = 0;\n    address public host;\n    \n    struct Ticket {\n        uint ticketId;\n        address owner;\n        uint price;\n        bool forSale;\n    }\n    \n    Ticket[] public tickets;\n    mapping(address => uint[]) public ownedTickets;\n    \n    event TicketCreated(uint ticketId, uint price);\n    event TicketPurchased(address buyer, uint ticketId);\n    event TicketListedForResale(uint ticketId, uint price);\n    event EventUpdated(string eventName, uint eventDate, string location);\n    event TicketOwnershipTransferred(uint ticketId, address from, address to);\n    \n    modifier onlyHost() {\n        require(msg.sender == host, \"Action restricted to event host.\");\n        _;\n    }\n    \n    constructor(string memory _eventName, uint _eventDate, string memory _location, uint _totalTickets, address _host) {\n        eventName = _eventName;\n        eventDate = _eventDate;\n        location = _location;\n        totalTickets = _totalTickets;\n        host = _host;\n    }\n    \n    function createTicket(uint _price) public onlyHost {\n        require(tickets.length < totalTickets, \"All tickets have already been created.\");\n        tickets.push(Ticket({\n            ticketId: tickets.length,\n            owner: address(this),\n            price: _price,\n            forSale: false\n        }));\n        emit TicketCreated(tickets.length - 1, _price);\n    }\n    \n    function buyTicket(uint _ticketId) public payable {\n        require(_ticketId < tickets.length, \"Ticket does not exist.\");\n        Ticket storage ticket = tickets[_ticketId];\n        require(ticket.forSale, \"Ticket not for sale.\");\n        require(msg.value == ticket.price, \"Incorrect payment amount.\");\n        \n        // Transfer ownership and funds\n        ticket.owner = msg.sender;\n        ticket.forSale = false;\n        ticketsSold++;\n        payable(host).transfer(msg.value);\n        \n        ownedTickets[msg.sender].push(_ticketId);\n        emit TicketPurchased(msg.sender, _ticketId);\n    }\n    \n    function listTicketForResale(uint _ticketId, uint _price) public {\n        require(_ticketId < tickets.length, \"Ticket does not exist.\");\n        Ticket storage ticket = tickets[_ticketId];\n        require(ticket.owner == msg.sender, \"You do not own this ticket.\");\n        \n        ticket.forSale = true;\n        ticket.price = _price;\n        emit TicketListedForResale(_ticketId, _price);\n    }\n    \n    function transferTicket(uint _ticketId, address _to) public {\n        require(_ticketId < tickets.length, \"Ticket does not exist.\");\n        Ticket storage ticket = tickets[_ticketId];\n        require(ticket.owner == msg.sender, \"You do not own this ticket.\");\n        \n        ticket.owner = _to;\n        emit TicketOwnershipTransferred(_ticketId, msg.sender, _to);\n    }\n    \n    function updateEventDetails(string memory _eventName, uint _eventDate, string memory _location) public onlyHost {\n        eventName = _eventName;\n        eventDate = _eventDate;\n        location = _location;\n        emit EventUpdated(_eventName, _eventDate, _location);\n    }\n}\n",
  "sourcePath": "/home/joel/EventChain/EventChain/contracts/event.sol",
  "compiler": {
    "name": "solc",
    "version": "0.8.0+commit.7c2e6412.Emscripten.clang"
  },
  "schemaVersion": "2.0.1",
  "updatedAt": "2024-04-17T17:12:10.875Z"
}