{
  "contractName": "Event",
  "abi": [
    {
      "inputs": [
        {
          "internalType": "string",
          "name": "_eventName",
          "type": "string"
        },
        {
          "internalType": "uint256",
          "name": "_eventDate",
          "type": "uint256"
        },
        {
          "internalType": "string",
          "name": "_location",
          "type": "string"
        },
        {
          "internalType": "uint256",
          "name": "_totalTickets",
          "type": "uint256"
        },
        {
          "internalType": "address",
          "name": "_host",
          "type": "address"
        }
      ],
      "stateMutability": "nonpayable",
      "type": "constructor"
    },
    {
      "anonymous": false,
      "inputs": [
        {
          "indexed": false,
          "internalType": "string",
          "name": "eventName",
          "type": "string"
        },
        {
          "indexed": false,
          "internalType": "uint256",
          "name": "eventDate",
          "type": "uint256"
        },
        {
          "indexed": false,
          "internalType": "string",
          "name": "location",
          "type": "string"
        }
      ],
      "name": "EventUpdated",
      "type": "event"
    },
    {
      "anonymous": false,
      "inputs": [
        {
          "indexed": false,
          "internalType": "uint256",
          "name": "ticketId",
          "type": "uint256"
        },
        {
          "indexed": false,
          "internalType": "address",
          "name": "owner",
          "type": "address"
        },
        {
          "indexed": false,
          "internalType": "uint256",
          "name": "price",
          "type": "uint256"
        },
        {
          "indexed": false,
          "internalType": "bool",
          "name": "forSale",
          "type": "bool"
        }
      ],
      "name": "LogTicket",
      "type": "event"
    },
    {
      "anonymous": false,
      "inputs": [
        {
          "indexed": false,
          "internalType": "uint256",
          "name": "ticketId",
          "type": "uint256"
        },
        {
          "indexed": false,
          "internalType": "uint256",
          "name": "price",
          "type": "uint256"
        }
      ],
      "name": "TicketCreated",
      "type": "event"
    },
    {
      "anonymous": false,
      "inputs": [
        {
          "indexed": false,
          "internalType": "uint256",
          "name": "ticketId",
          "type": "uint256"
        },
        {
          "indexed": false,
          "internalType": "uint256",
          "name": "price",
          "type": "uint256"
        }
      ],
      "name": "TicketListedForResale",
      "type": "event"
    },
    {
      "anonymous": false,
      "inputs": [
        {
          "indexed": false,
          "internalType": "uint256",
          "name": "ticketId",
          "type": "uint256"
        },
        {
          "indexed": false,
          "internalType": "address",
          "name": "from",
          "type": "address"
        },
        {
          "indexed": false,
          "internalType": "address",
          "name": "to",
          "type": "address"
        }
      ],
      "name": "TicketOwnershipTransferred",
      "type": "event"
    },
    {
      "anonymous": false,
      "inputs": [
        {
          "indexed": false,
          "internalType": "address",
          "name": "buyer",
          "type": "address"
        },
        {
          "indexed": false,
          "internalType": "uint256",
          "name": "ticketId",
          "type": "uint256"
        }
      ],
      "name": "TicketPurchased",
      "type": "event"
    },
    {
      "inputs": [
        {
          "internalType": "uint256",
          "name": "_ticketId",
          "type": "uint256"
        }
      ],
      "name": "buyTicket",
      "outputs": [],
      "stateMutability": "payable",
      "type": "function"
    },
    {
      "inputs": [],
      "name": "checkTickets",
      "outputs": [],
      "stateMutability": "nonpayable",
      "type": "function"
    },
    {
      "inputs": [
        {
          "internalType": "uint256",
          "name": "_price",
          "type": "uint256"
        }
      ],
      "name": "createTicket",
      "outputs": [],
      "stateMutability": "nonpayable",
      "type": "function"
    },
    {
      "inputs": [],
      "name": "eventDate",
      "outputs": [
        {
          "internalType": "uint256",
          "name": "",
          "type": "uint256"
        }
      ],
      "stateMutability": "view",
      "type": "function"
    },
    {
      "inputs": [],
      "name": "eventName",
      "outputs": [
        {
          "internalType": "string",
          "name": "",
          "type": "string"
        }
      ],
      "stateMutability": "view",
      "type": "function"
    },
    {
      "inputs": [],
      "name": "host",
      "outputs": [
        {
          "internalType": "address",
          "name": "",
          "type": "address"
        }
      ],
      "stateMutability": "view",
      "type": "function"
    },
    {
      "inputs": [
        {
          "internalType": "uint256",
          "name": "_ticketId",
          "type": "uint256"
        },
        {
          "internalType": "uint256",
          "name": "_price",
          "type": "uint256"
        }
      ],
      "name": "listTicketForResale",
      "outputs": [],
      "stateMutability": "nonpayable",
      "type": "function"
    },
    {
      "inputs": [],
      "name": "location",
      "outputs": [
        {
          "internalType": "string",
          "name": "",
          "type": "string"
        }
      ],
      "stateMutability": "view",
      "type": "function"
    },
    {
      "inputs": [
        {
          "internalType": "address",
          "name": "",
          "type": "address"
        },
        {
          "internalType": "uint256",
          "name": "",
          "type": "uint256"
        }
      ],
      "name": "ownedTickets",
      "outputs": [
        {
          "internalType": "uint256",
          "name": "",
          "type": "uint256"
        }
      ],
      "stateMutability": "view",
      "type": "function"
    },
    {
      "inputs": [
        {
          "internalType": "uint256",
          "name": "",
          "type": "uint256"
        }
      ],
      "name": "tickets",
      "outputs": [
        {
          "internalType": "uint256",
          "name": "ticketId",
          "type": "uint256"
        },
        {
          "internalType": "address",
          "name": "owner",
          "type": "address"
        },
        {
          "internalType": "uint256",
          "name": "price",
          "type": "uint256"
        },
        {
          "internalType": "bool",
          "name": "forSale",
          "type": "bool"
        }
      ],
      "stateMutability": "view",
      "type": "function"
    },
    {
      "inputs": [],
      "name": "ticketsSold",
      "outputs": [
        {
          "internalType": "uint256",
          "name": "",
          "type": "uint256"
        }
      ],
      "stateMutability": "view",
      "type": "function"
    },
    {
      "inputs": [],
      "name": "totalTickets",
      "outputs": [
        {
          "internalType": "uint256",
          "name": "",
          "type": "uint256"
        }
      ],
      "stateMutability": "view",
      "type": "function"
    },
    {
      "inputs": [
        {
          "internalType": "uint256",
          "name": "_ticketId",
          "type": "uint256"
        },
        {
          "internalType": "address",
          "name": "_to",
          "type": "address"
        }
      ],
      "name": "transferTicket",
      "outputs": [],
      "stateMutability": "nonpayable",
      "type": "function"
    },
    {
      "inputs": [
        {
          "internalType": "string",
          "name": "_eventName",
          "type": "string"
        },
        {
          "internalType": "uint256",
          "name": "_eventDate",
          "type": "uint256"
        },
        {
          "internalType": "string",
          "name": "_location",
          "type": "string"
        }
      ],
      "name": "updateEventDetails",
      "outputs": [],
      "stateMutability": "nonpayable",
      "type": "function"
    }
  ],
  "bytecode": "0x608060405260006004553480156200001657600080fd5b50d380156200002457600080fd5b50d280156200003257600080fd5b506040516200137738038062001377833981016040819052620000559162000206565b84516200006a906000906020880190620000b5565b506001849055825162000085906002906020860190620000b5565b50600391909155600580546001600160a01b0319166001600160a01b0390921691909117905550620002ff915050565b828054620000c390620002ac565b90600052602060002090601f016020900481019282620000e7576000855562000132565b82601f106200010257805160ff191683800117855562000132565b8280016001018555821562000132579182015b828111156200013257825182559160200191906001019062000115565b506200014092915062000144565b5090565b5b8082111562000140576000815560010162000145565b600082601f8301126200016c578081fd5b81516001600160401b0380821115620001895762000189620002e9565b6040516020601f8401601f1916820181018381118382101715620001b157620001b1620002e9565b6040528382528584018101871015620001c8578485fd5b8492505b83831015620001eb5785830181015182840182015291820191620001cc565b83831115620001fc57848185840101525b5095945050505050565b600080600080600060a086880312156200021e578081fd5b85516001600160401b038082111562000235578283fd5b6200024389838a016200015b565b965060208801519550604088015191508082111562000260578283fd5b506200026f888289016200015b565b60608801516080890151919550935090506001600160a81b038116811462000295578182fd5b9497939650919450926001600160a01b0316919050565b600281046001821680620002c157607f821691505b60208210811415620002e357634e487b7160e01b600052602260045260246000fd5b50919050565b634e487b7160e01b600052604160045260246000fd5b611068806200030f6000396000f3fe6080604052600436106100dd5760003560e01c80637383d15e1161007f57806399eb37591161005957806399eb375914610308578063dd11247e14610342578063f3e7175614610371578063f437bc59146103a0576100dd565b80637383d15e146102705780638043c9c0146102aa5780638f15024f146102d9576100dd565b8063516f279e116100bb578063516f279e146101ad5780636053b0ef146101e9578063679ebf1a1461022357806367dd74ca1461025d576100dd565b80630497879c146100e25780634bfbe5df1461011e57806350b4471214610163575b600080fd5b3480156100ee57600080fd5b50d380156100fb57600080fd5b50d2801561010857600080fd5b5061011c610117366004610ccb565b6103dc565b005b34801561012a57600080fd5b50d3801561013757600080fd5b50d2801561014457600080fd5b5061014d610574565b60405161015a9190610f3d565b60405180910390f35b34801561016f57600080fd5b50d3801561017c57600080fd5b50d2801561018957600080fd5b5061019d610198366004610ccb565b61057a565b60405161015a9493929190610f65565b3480156101b957600080fd5b50d380156101c657600080fd5b50d280156101d357600080fd5b506101dc6105c0565b60405161015a9190610da7565b3480156101f557600080fd5b50d3801561020257600080fd5b50d2801561020f57600080fd5b5061011c61021e366004610d0e565b61064e565b34801561022f57600080fd5b50d3801561023c57600080fd5b50d2801561024957600080fd5b5061011c610258366004610ce3565b610727565b61011c61026b366004610ccb565b6107fc565b34801561027c57600080fd5b50d3801561028957600080fd5b50d2801561029657600080fd5b5061011c6102a5366004610c61565b610968565b3480156102b657600080fd5b50d380156102c357600080fd5b50d280156102d057600080fd5b506101dc6109f2565b3480156102e557600080fd5b50d380156102f257600080fd5b50d280156102ff57600080fd5b5061014d6109ff565b34801561031457600080fd5b50d3801561032157600080fd5b50d2801561032e57600080fd5b5061014d61033d366004610c38565b610a05565b34801561034e57600080fd5b50d3801561035b57600080fd5b50d2801561036857600080fd5b5061014d610a36565b34801561037d57600080fd5b50d3801561038a57600080fd5b50d2801561039757600080fd5b5061011c610a3c565b3480156103ac57600080fd5b50d380156103b957600080fd5b50d280156103c657600080fd5b506103cf610ae8565b60405161015a9190610d7a565b6005546001600160a01b0316331461040f5760405162461bcd60e51b815260040161040690610e26565b60405180910390fd5b600354600654106104325760405162461bcd60e51b815260040161040690610e5b565b60408051608081018252600680548083523060208401908152938301858152600060608501818152600180850186559185905294517ff652222313e28459528d920b65115c16c04f3efc82aaedc97be59f3f377c0d3f60049094029384015594517ff652222313e28459528d920b65115c16c04f3efc82aaedc97be59f3f377c0d40830180546001600160a01b0319166001600160a01b03909216919091179055517ff652222313e28459528d920b65115c16c04f3efc82aaedc97be59f3f377c0d4182015591517ff652222313e28459528d920b65115c16c04f3efc82aaedc97be59f3f377c0d42909201805460ff191692151592909217909155547fde72d886343740933ca9656ec06b338266af1ba9a7ab7b1439cd1144def2d8ce9161055a91610f99565b82604051610569929190610f8b565b60405180910390a150565b60015481565b6006818154811061058a57600080fd5b600091825260209091206004909102018054600182015460028301546003909301549193506001600160a01b0316919060ff1684565b600280546105cd90610fb0565b80601f01602080910402602001604051908101604052809291908181526020018280546105f990610fb0565b80156106465780601f1061061b57610100808354040283529160200191610646565b820191906000526020600020905b81548152906001019060200180831161062957829003601f168201915b505050505081565b600654821061066f5760405162461bcd60e51b815260040161040690610df6565b60006006838154811061069257634e487b7160e01b600052603260045260246000fd5b600091825260209091206001600490920201908101549091506001600160a01b031633146106d25760405162461bcd60e51b815260040161040690610ed8565b60038101805460ff19166001179055600281018290556040517f2d8cbebfd87cb19b7bed949f9c8d5a80d939133966ef331ac575d69160ea04659061071a9085908590610f8b565b60405180910390a1505050565b60065482106107485760405162461bcd60e51b815260040161040690610df6565b60006006838154811061076b57634e487b7160e01b600052603260045260246000fd5b600091825260209091206001600490920201908101549091506001600160a01b031633146107ab5760405162461bcd60e51b815260040161040690610ed8565b6001810180546001600160a01b0319166001600160a01b0384161790556040517f28f6f1dce7cc33c97d4fb9baab19ba3c5f596ea2f56c0ae92d7511aa0dba97979061071a90859033908690610f46565b600654811061081d5760405162461bcd60e51b815260040161040690610df6565b60006006828154811061084057634e487b7160e01b600052603260045260246000fd5b60009182526020909120600490910201600381015490915060ff166108775760405162461bcd60e51b815260040161040690610f0f565b8060020154341461089a5760405162461bcd60e51b815260040161040690610ea1565b6001810180546001600160a01b0319163317905560038101805460ff19169055600480549060006108ca83610feb565b90915550506005546040516001600160a01b03909116903480156108fc02916000818181858888f19350505050158015610908573d6000803e3d6000fd5b5033600081815260076020908152604080832080546001810182559084529190922001849055517f0668f5b446eb814fe35b3206f43f14bd8567ba04ddaf7a3ee56516929ab22ccb9161095c918590610d8e565b60405180910390a15050565b6005546001600160a01b031633146109925760405162461bcd60e51b815260040161040690610e26565b82516109a5906000906020860190610af7565b50600182905580516109be906002906020840190610af7565b507f2626cb400680a6aaaa118e231510c585fa53552365f9d127f078ba16c753283983838360405161071a93929190610dc1565b600080546105cd90610fb0565b60045481565b60076020528160005260406000208181548110610a2157600080fd5b90600052602060002001600091509150505481565b60035481565b60006006600081548110610a6057634e487b7160e01b600052603260045260246000fd5b6000918252602091829020604080516080810182526004909302909101805480845260018201546001600160a01b0316948401859052600282015484840181905260039092015460ff1615156060850181905292519395507f4610ed565fd68724c097063eba0ce0afe9b81927be1a75d1be62022f870c302894610569949193909291610f65565b6005546001600160a01b031681565b828054610b0390610fb0565b90600052602060002090601f016020900481019282610b255760008555610b6b565b82601f10610b3e57805160ff1916838001178555610b6b565b82800160010185558215610b6b579182015b82811115610b6b578251825591602001919060010190610b50565b50610b77929150610b7b565b5090565b5b80821115610b775760008155600101610b7c565b600081356001600160a81b0381168114610ba8578182fd5b6001600160a01b031692915050565b600082601f830112610bc7578081fd5b813567ffffffffffffffff80821115610be257610be261101c565b604051601f8301601f191681016020018281118282101715610c0657610c0661101c565b604052828152848301602001861015610c1d578384fd5b82602086016020830137918201602001929092529392505050565b60008060408385031215610c4a578182fd5b610c5383610b90565b946020939093013593505050565b600080600060608486031215610c75578081fd5b833567ffffffffffffffff80821115610c8c578283fd5b610c9887838801610bb7565b9450602086013593506040860135915080821115610cb4578283fd5b50610cc186828701610bb7565b9150509250925092565b600060208284031215610cdc578081fd5b5035919050565b60008060408385031215610cf5578182fd5b82359150610d0560208401610b90565b90509250929050565b60008060408385031215610d20578182fd5b50508035926020909101359150565b60008151808452815b81811015610d5457602081850181015186830182015201610d38565b81811115610d655782602083870101525b50601f01601f19169290920160200192915050565b6001600160a01b0391909116815260200190565b6001600160a01b03929092168252602082015260400190565b600060208252610dba6020830184610d2f565b9392505050565b600060608252610dd46060830186610d2f565b8460208401528281036040840152610dec8185610d2f565b9695505050505050565b6020808252601690820152752a34b1b5b2ba103237b2b9903737ba1032bc34b9ba1760511b604082015260600190565b6020808252818101527f416374696f6e207265737472696374656420746f206576656e7420686f73742e604082015260600190565b60208082526026908201527f416c6c207469636b657473206861766520616c7265616479206265656e20637260408201526532b0ba32b21760d11b606082015260800190565b60208082526019908201527f496e636f7272656374207061796d656e7420616d6f756e742e00000000000000604082015260600190565b6020808252601b908201527f596f7520646f206e6f74206f776e2074686973207469636b65742e0000000000604082015260600190565b6020808252601490820152732a34b1b5b2ba103737ba103337b91039b0b6329760611b604082015260600190565b90815260200190565b9283526001600160a01b03918216602084015216604082015260600190565b9384526001600160a01b0392909216602084015260408301521515606082015260800190565b918252602082015260400190565b600082821015610fab57610fab611006565b500390565b600281046001821680610fc457607f821691505b60208210811415610fe557634e487b7160e01b600052602260045260246000fd5b50919050565b6000600019821415610fff57610fff611006565b5060010190565b634e487b7160e01b600052601160045260246000fd5b634e487b7160e01b600052604160045260246000fdfea2646970667358221220ca6400aa31650c400b85f5257240959c04bb983ddc29b5528189cdb15e07758264736f6c63430008000033",
  "source": "pragma solidity ^0.8.0;\n\ncontract Event {\n    string public eventName;\n    uint public eventDate;\n    string public location;\n    uint public totalTickets;\n    uint public ticketsSold = 0;\n    address public host;\n    \n    struct Ticket {\n        uint ticketId;\n        address owner;\n        uint price;\n        bool forSale;\n    }\n    \n    Ticket[] public tickets;\n    mapping(address => uint[]) public ownedTickets;\n    \n    event TicketCreated(uint ticketId, uint price);\n    event TicketPurchased(address buyer, uint ticketId);\n    event TicketListedForResale(uint ticketId, uint price);\n    event EventUpdated(string eventName, uint eventDate, string location);\n    event TicketOwnershipTransferred(uint ticketId, address from, address to);\n    event LogTicket(uint ticketId, address owner, uint price, bool forSale);    \n    modifier onlyHost() {\n        require(msg.sender == host, \"Action restricted to event host.\");\n        _;\n    }\n    \n    constructor(string memory _eventName, uint _eventDate, string memory _location, uint _totalTickets, address _host) {\n        eventName = _eventName;\n        eventDate = _eventDate;\n        location = _location;\n        totalTickets = _totalTickets;\n        host = _host;\n    }\n    \n    function checkTickets() public{\n        Ticket memory ticket = tickets[0];\n        emit LogTicket(ticket.ticketId, ticket.owner, ticket.price, ticket.forSale);\n    }\n\n    function createTicket(uint _price) public onlyHost{\n        require(tickets.length < totalTickets, \"All tickets have already been created.\");\n        tickets.push(Ticket({\n            ticketId: tickets.length,\n            owner: address(this),\n            price: _price,\n            forSale: false\n        }));\n        emit TicketCreated(tickets.length - 1, _price);\n    }\n    \n    function buyTicket(uint _ticketId) public payable {\n        require(_ticketId < tickets.length, \"Ticket does not exist.\");\n        Ticket storage ticket = tickets[_ticketId];\n        require(ticket.forSale, \"Ticket not for sale.\");\n        require(msg.value == ticket.price, \"Incorrect payment amount.\");\n        \n        // Transfer ownership and funds\n        ticket.owner = msg.sender;\n        ticket.forSale = false;\n        ticketsSold++;\n        payable(host).transfer(msg.value);\n        \n        ownedTickets[msg.sender].push(_ticketId);\n        emit TicketPurchased(msg.sender, _ticketId);\n    }\n    \n    function listTicketForResale(uint _ticketId, uint _price) public {\n        require(_ticketId < tickets.length, \"Ticket does not exist.\");\n        Ticket storage ticket = tickets[_ticketId];\n        require(ticket.owner == msg.sender, \"You do not own this ticket.\");\n        \n        ticket.forSale = true;\n        ticket.price = _price;\n        emit TicketListedForResale(_ticketId, _price);\n    }\n    \n    function transferTicket(uint _ticketId, address _to) public {\n        require(_ticketId < tickets.length, \"Ticket does not exist.\");\n        Ticket storage ticket = tickets[_ticketId];\n        require(ticket.owner == msg.sender, \"You do not own this ticket.\");\n        \n        ticket.owner = _to;\n        emit TicketOwnershipTransferred(_ticketId, msg.sender, _to);\n    }\n    \n    function updateEventDetails(string memory _eventName, uint _eventDate, string memory _location) public onlyHost {\n        eventName = _eventName;\n        eventDate = _eventDate;\n        location = _location;\n        emit EventUpdated(_eventName, _eventDate, _location);\n    }\n}\n",
  "sourcePath": "/home/joel/EventChain/EventChain/contracts/event.sol",
  "compiler": {
    "name": "solc",
    "version": "0.8.0+commit.7c2e6412.Emscripten.clang"
  },
  "schemaVersion": "2.0.1",
  "updatedAt": "2024-04-17T18:28:50.350Z"
}