{
  "contractName": "Event",
  "abi": [
    {
      "inputs": [
        {
          "internalType": "uint256",
          "name": "_totalTickets",
          "type": "uint256"
        },
        {
          "internalType": "address",
          "name": "_host",
          "type": "address"
        },
        {
          "internalType": "uint256",
          "name": "_price",
          "type": "uint256"
        }
      ],
      "stateMutability": "nonpayable",
      "type": "constructor"
    },
    {
      "anonymous": false,
      "inputs": [
        {
          "indexed": false,
          "internalType": "uint256",
          "name": "ticketId",
          "type": "uint256"
        },
        {
          "indexed": false,
          "internalType": "uint256",
          "name": "price",
          "type": "uint256"
        },
        {
          "indexed": false,
          "internalType": "bool",
          "name": "forSale",
          "type": "bool"
        }
      ],
      "name": "LogTicket",
      "type": "event"
    },
    {
      "anonymous": false,
      "inputs": [
        {
          "indexed": false,
          "internalType": "uint256",
          "name": "ticketId",
          "type": "uint256"
        }
      ],
      "name": "TicketCreated",
      "type": "event"
    },
    {
      "anonymous": false,
      "inputs": [
        {
          "indexed": false,
          "internalType": "uint256",
          "name": "ticketId",
          "type": "uint256"
        },
        {
          "indexed": false,
          "internalType": "uint256",
          "name": "price",
          "type": "uint256"
        }
      ],
      "name": "TicketListedForResale",
      "type": "event"
    },
    {
      "anonymous": false,
      "inputs": [
        {
          "indexed": false,
          "internalType": "uint256",
          "name": "ticketId",
          "type": "uint256"
        },
        {
          "indexed": false,
          "internalType": "address",
          "name": "from",
          "type": "address"
        },
        {
          "indexed": false,
          "internalType": "address",
          "name": "to",
          "type": "address"
        }
      ],
      "name": "TicketOwnershipTransferred",
      "type": "event"
    },
    {
      "anonymous": false,
      "inputs": [
        {
          "indexed": false,
          "internalType": "address",
          "name": "buyer",
          "type": "address"
        }
      ],
      "name": "TicketPurchased",
      "type": "event"
    },
    {
      "inputs": [],
      "name": "buyTicket",
      "outputs": [],
      "stateMutability": "payable",
      "type": "function"
    },
    {
      "inputs": [
        {
          "internalType": "uint256",
          "name": "ticketId",
          "type": "uint256"
        }
      ],
      "name": "checkPrice",
      "outputs": [
        {
          "internalType": "uint256",
          "name": "",
          "type": "uint256"
        }
      ],
      "stateMutability": "view",
      "type": "function"
    },
    {
      "inputs": [
        {
          "internalType": "uint256",
          "name": "ticketId",
          "type": "uint256"
        }
      ],
      "name": "checkTicketForSale",
      "outputs": [
        {
          "internalType": "bool",
          "name": "",
          "type": "bool"
        }
      ],
      "stateMutability": "view",
      "type": "function"
    },
    {
      "inputs": [],
      "name": "checkTickets",
      "outputs": [],
      "stateMutability": "nonpayable",
      "type": "function"
    },
    {
      "inputs": [],
      "name": "createTicket",
      "outputs": [],
      "stateMutability": "nonpayable",
      "type": "function"
    },
    {
      "inputs": [
        {
          "internalType": "address",
          "name": "account",
          "type": "address"
        },
        {
          "internalType": "uint256",
          "name": "ticketId",
          "type": "uint256"
        }
      ],
      "name": "getTicketOwnership",
      "outputs": [
        {
          "internalType": "uint256",
          "name": "",
          "type": "uint256"
        }
      ],
      "stateMutability": "view",
      "type": "function"
    },
    {
      "inputs": [],
      "name": "host",
      "outputs": [
        {
          "internalType": "address",
          "name": "",
          "type": "address"
        }
      ],
      "stateMutability": "view",
      "type": "function"
    },
    {
      "inputs": [
        {
          "internalType": "uint256",
          "name": "_ticketId",
          "type": "uint256"
        },
        {
          "internalType": "uint256",
          "name": "_price",
          "type": "uint256"
        }
      ],
      "name": "listTicketForResale",
      "outputs": [],
      "stateMutability": "nonpayable",
      "type": "function"
    },
    {
      "inputs": [
        {
          "internalType": "address",
          "name": "",
          "type": "address"
        },
        {
          "internalType": "uint256",
          "name": "",
          "type": "uint256"
        }
      ],
      "name": "ownedTickets",
      "outputs": [
        {
          "internalType": "uint256",
          "name": "",
          "type": "uint256"
        }
      ],
      "stateMutability": "view",
      "type": "function"
    },
    {
      "inputs": [],
      "name": "ticketPrice",
      "outputs": [
        {
          "internalType": "uint256",
          "name": "",
          "type": "uint256"
        }
      ],
      "stateMutability": "view",
      "type": "function"
    },
    {
      "inputs": [
        {
          "internalType": "uint256",
          "name": "",
          "type": "uint256"
        }
      ],
      "name": "tickets",
      "outputs": [
        {
          "internalType": "uint256",
          "name": "ticketId",
          "type": "uint256"
        },
        {
          "internalType": "uint256",
          "name": "price",
          "type": "uint256"
        },
        {
          "internalType": "bool",
          "name": "forSale",
          "type": "bool"
        }
      ],
      "stateMutability": "view",
      "type": "function"
    },
    {
      "inputs": [],
      "name": "ticketsSold",
      "outputs": [
        {
          "internalType": "uint256",
          "name": "",
          "type": "uint256"
        }
      ],
      "stateMutability": "view",
      "type": "function"
    },
    {
      "inputs": [],
      "name": "totalTickets",
      "outputs": [
        {
          "internalType": "uint256",
          "name": "",
          "type": "uint256"
        }
      ],
      "stateMutability": "view",
      "type": "function"
    },
    {
      "inputs": [
        {
          "internalType": "uint256",
          "name": "_ticketId",
          "type": "uint256"
        },
        {
          "internalType": "address",
          "name": "_to",
          "type": "address"
        }
      ],
      "name": "transferTicket",
      "outputs": [],
      "stateMutability": "nonpayable",
      "type": "function"
    }
  ],
  "bytecode": "0x6080604052600060025534801561001557600080fd5b50d3801561002257600080fd5b50d2801561002f57600080fd5b50604051610b40380380610b4083398101604081905261004e9161007c565b600092909255600380546001600160a01b0319166001600160a01b03929092169190911790556001556100cb565b600080600060608486031215610090578283fd5b835160208501519093506001600160a81b03811681146100ae578283fd5b6040949094015192956001600160a01b0390941694509192915050565b610a66806100da6000396000f3fe6080604052600436106100dd5760003560e01c8063679ebf1a1161007f578063dd11247e11610059578063dd11247e14610339578063edca914c14610368578063f3e7175614610370578063f437bc591461039f576100dd565b8063679ebf1a146102965780638f15024f146102d057806399eb3759146102ff576100dd565b80634459723d116100bb5780634459723d14610192578063456993d7146101cc57806350b44712146102135780636053b0ef1461025c576100dd565b80631209b1f6146100e25780631d271709146101275780631de7463a14610158575b600080fd5b3480156100ee57600080fd5b50d380156100fb57600080fd5b50d2801561010857600080fd5b506101116103db565b60405161011e919061099a565b60405180910390f35b34801561013357600080fd5b50d3801561014057600080fd5b50d2801561014d57600080fd5b506101566103e1565b005b34801561016457600080fd5b50d3801561017157600080fd5b50d2801561017e57600080fd5b5061011161018d36600461086a565b6104a6565b34801561019e57600080fd5b50d380156101ab57600080fd5b50d280156101b857600080fd5b506101116101c7366004610841565b6104bb565b3480156101d857600080fd5b50d380156101e557600080fd5b50d280156101f257600080fd5b5061020661020136600461086a565b6104e3565b60405161011e91906108e2565b34801561021f57600080fd5b50d3801561022c57600080fd5b50d2801561023957600080fd5b5061024d61024836600461086a565b6104fb565b60405161011e939291906109d0565b34801561026857600080fd5b50d3801561027557600080fd5b50d2801561028257600080fd5b506101566102913660046108ad565b61051f565b3480156102a257600080fd5b50d380156102af57600080fd5b50d280156102bc57600080fd5b506101566102cb366004610882565b6105a5565b3480156102dc57600080fd5b50d380156102e957600080fd5b50d280156102f657600080fd5b5061011161062d565b34801561030b57600080fd5b50d3801561031857600080fd5b50d2801561032557600080fd5b50610111610334366004610841565b610633565b34801561034557600080fd5b50d3801561035257600080fd5b50d2801561035f57600080fd5b50610111610650565b610156610656565b34801561037c57600080fd5b50d3801561038957600080fd5b50d2801561039657600080fd5b5061015661074d565b3480156103ab57600080fd5b50d380156103b857600080fd5b50d280156103c557600080fd5b506103ce61080b565b60405161011e91906108ce565b60015481565b6000546002541061040d5760405162461bcd60e51b81526004016104049061091d565b60405180910390fd5b60408051606081018252600280548083526001805460208086019182526000868801818152948152600490915295862094518555519084015551918101805460ff191692151592909217909155805491610466836109ff565b91905055507f017816d6671654d29260799b31a628be724d7e4fa8e22da3fae8ab443ec0a3c360025460405161049c919061099a565b60405180910390a1565b60009081526004602052604090206001015490565b6001600160a01b03919091166000908152600560209081526040808320938352929052205490565b60009081526004602052604090206002015460ff1690565b60046020526000908152604090208054600182015460029092015490919060ff1683565b60025482106105405760405162461bcd60e51b8152600401610404906108ed565b6000828152600460205260409081902060028101805460ff19166001908117909155810183905590517f2d8cbebfd87cb19b7bed949f9c8d5a80d939133966ef331ac575d69160ea04659061059890859085906109c2565b60405180910390a1505050565b60025482106105c65760405162461bcd60e51b8152600401610404906108ed565b6001600160a01b03811660009081526005602090815260408083208584529091529081902060019055517f28f6f1dce7cc33c97d4fb9baab19ba3c5f596ea2f56c0ae92d7511aa0dba979790610621908490339085906109a3565b60405180910390a15050565b60025481565b600560209081526000928352604080842090915290825290205481565b60005481565b60006106606103e1565b60046000600160025461067391906109e8565b81526020019081526020016000209050806001015434146106a65760405162461bcd60e51b815260040161040490610963565b6003546040516001600160a01b03909116903480156108fc02916000818181858888f193505050501580156106df573d6000803e3d6000fd5b50336000908152600560205260408120600254600192906107019084906109e8565b8152602001908152602001600020819055507f23443ac3afaec974c2d4368824912f61a50fee541bcc94ec52414ba6a9b14aab3360405161074291906108ce565b60405180910390a150565b6000805260046020908152604080516060810182527f17ef568e3e12ab5b9c7254a8d58478811de00f9e6eb34345acd53bf8fd09d3ec548082527f17ef568e3e12ab5b9c7254a8d58478811de00f9e6eb34345acd53bf8fd09d3ed549382018490527f17ef568e3e12ab5b9c7254a8d58478811de00f9e6eb34345acd53bf8fd09d3ee5460ff161515828401819052925191937f0dfcd7239e4fae9fb8e8eaf046d05db549ffd323cd08def3f98bd31b4d933f7393610742936109d0565b6003546001600160a01b031681565b600081356001600160a81b0381168114610832578182fd5b6001600160a01b031692915050565b60008060408385031215610853578182fd5b61085c8361081a565b946020939093013593505050565b60006020828403121561087b578081fd5b5035919050565b60008060408385031215610894578182fd5b823591506108a46020840161081a565b90509250929050565b600080604083850312156108bf578182fd5b50508035926020909101359150565b6001600160a01b0391909116815260200190565b901515815260200190565b6020808252601690820152752a34b1b5b2ba103237b2b9903737ba1032bc34b9ba1760511b604082015260600190565b60208082526026908201527f416c6c207469636b657473206861766520616c7265616479206265656e20637260408201526532b0ba32b21760d11b606082015260800190565b60208082526019908201527f496e636f7272656374207061796d656e7420616d6f756e742e00000000000000604082015260600190565b90815260200190565b9283526001600160a01b03918216602084015216604082015260600190565b918252602082015260400190565b92835260208301919091521515604082015260600190565b6000828210156109fa576109fa610a1a565b500390565b6000600019821415610a1357610a13610a1a565b5060010190565b634e487b7160e01b600052601160045260246000fdfea26469706673582212201ffb0766a9fb435ab50502531558756d57adb0fa80e63c9be26439be7c519fc064736f6c63430008000033",
  "source": "pragma solidity ^0.8.0;\n\ncontract Event {\n    uint public totalTickets;\n    uint public ticketPrice;\n    uint public ticketsSold = 0;\n    address public host;\n    \n    struct Ticket {\n        uint ticketId;\n        uint price;\n        bool forSale;\n    }\n    \n    mapping(uint => Ticket) public tickets;\n    mapping(address => mapping(uint => uint)) public ownedTickets;\n    \n    event TicketCreated(uint ticketId);\n    event TicketPurchased(address buyer);\n    event TicketListedForResale(uint ticketId, uint price);\n    event TicketOwnershipTransferred(uint ticketId, address from, address to);\n    event LogTicket(uint ticketId, uint price, bool forSale);\n    \n    modifier onlyHost() {\n        require(msg.sender == host, \"Action restricted to event host.\");\n        _;\n    }\n    \n    constructor(uint _totalTickets, address _host, uint _price) {\n        totalTickets = _totalTickets;\n        host = _host;\n        ticketPrice = _price; // Set the ticket price\n    }\n    \n    function checkTickets() public{\n        Ticket memory ticket = tickets[0];\n        emit LogTicket(ticket.ticketId, ticket.price, ticket.forSale);\n    }\n\n    function getTicketOwnership(address account, uint ticketId) public view returns(uint){\n        return ownedTickets[account][ticketId];\n    }\n\n    function createTicket() public{\n        require(ticketsSold < totalTickets, \"All tickets have already been created.\");\n        tickets[ticketsSold] = Ticket({\n            ticketId: ticketsSold,\n            price: ticketPrice,\n            forSale: false\n        });\n\n        ticketsSold++;\n        // tickets.push(Ticket({\n        //     ticketId: tickets.length,\n        //     price: _price,\n        //     forSale: false\n        // }));\n\n        emit TicketCreated(ticketsSold);\n    }\n    \n    function buyTicket() public payable {\n            Ticket storage ticket;\n\n            createTicket();\n            ticket = tickets[ticketsSold - 1];\n\n            require(msg.value == ticket.price, \"Incorrect payment amount.\");\n\n            payable(host).transfer(msg.value);\n\n            ownedTickets[msg.sender][ticketsSold - 1] = 1; \n            emit TicketPurchased(msg.sender); \n        }\n\n    \n    function listTicketForResale(uint _ticketId, uint _price) public {\n        require(_ticketId < ticketsSold, \"Ticket does not exist.\");\n        Ticket storage ticket = tickets[_ticketId];\n        \n        ticket.forSale = true;\n        ticket.price = _price;\n        emit TicketListedForResale(_ticketId, _price);\n    }\n\n    function checkTicketForSale(uint ticketId) public view returns(bool){\n        return tickets[ticketId].forSale;\n    }\n\n    function checkPrice(uint ticketId) public view returns(uint){\n        return tickets[ticketId].price;\n    }\n    \n    function transferTicket(uint _ticketId, address _to) public {\n        require(_ticketId < ticketsSold, \"Ticket does not exist.\");\n        ownedTickets[_to][_ticketId] = 1; // Record the ownership\n        emit TicketOwnershipTransferred(_ticketId, msg.sender, _to);\n    }\n    \n    // function updateEventDetails(string memory _eventName, uint _eventDate, string memory _location) public onlyHost {\n    //     location = _location;\n    //     emit EventUpdated(_eventName, _eventDate, _location);\n    // }\n}\n",
  "sourcePath": "/home/joel/EventChain/EventChain/contracts/event.sol",
  "compiler": {
    "name": "solc",
    "version": "0.8.0+commit.7c2e6412.Emscripten.clang"
  },
  "schemaVersion": "2.0.1",
  "updatedAt": "2024-04-20T14:52:56.473Z"
}